:100000003BC0D1C153C052C051C050C04FC04EC000
:100010004DC04CC04BC04AC049C048C047C046C094
:1000200045C044C043C0040309041C0377007700A3
:1000300077002E00660069007300630068006C00A2
:100040002E00640065000E0355005300420061005D
:100050007300700012011001FF000008C016DC05DB
:1000600002010102000109021200010100801909C8
:10007000040000000000000011241FBECFE5D4E002
:10008000DEBFCDBF10E0A0E6B0E0E0EAFEE002C0D7
:1000900005900D92A236B107D9F710E0A2E6B0E0C4
:1000A00001C01D92A33AB107E1F796C4A9CF85B765
:1000B000836085BF8BB780648BBF08950F931F93B8
:1000C000CF93DF9360918700161604F563508091FB
:1000D0008400C7E9D0E0C81BD109809183008D322C
:1000E00009F44DC08091620087FD4EC0CE018CD4D2
:1000F0008F3F09F485C0882309F05AC030E02FEF04
:10010000309362002093600010928700809161001C
:1001100084FF29C0809160008F3F29F1682F8930CA
:1001200008F03DC0861B809360008091620080FFD4
:1001300034C003EC8F5F8093620087FD69C0662343
:1001400009F455C088E790E01BD5682F7727162F54
:10015000693008F479C08FEF809360009EE10093CE
:100160007700909361009AE086B3837009F0F9C03C
:100170009150D1F71092880010928200F2C08AE567
:10018000809361006830B9F030E820E0309362007D
:100190002093600010928700B9CF0BE4CBCF68E0CA
:1001A000861B809360008091620080FFF6CFC1CFF4
:1001B00030E020E0EBCF8881807609F05CC020E859
:1001C00030E0109280008981882309F05BC0109292
:1001D0008100309386002093850030E822E08F81F3
:1001E0008823A1F68E81821788F6282FCFCF60E072
:1001F00088E790E0D4D094E08FEF80936000AFCF99
:10020000809360008EE18093610030E02FEFBECFDD
:10021000209185003091860086FD1FC0462F4150F9
:100220004F3F61F0F901942FA8E7B0E081918D93E1
:100230009150E0F7240F311D2F5F3F4F3093860020
:1002400020938500772783CF88E790E0A8D0912F6F
:100250009C5F183008F083CFCFCF462F41504F3FDF
:1002600069F3F901942FA8E7B0E084918D9331965A
:100270009150D8F7DFCFCE01D5D4282F8F3FA9F0EA
:1002800030E8ADCF853059F08630B9F08830F9F0DC
:10029000893031F18A3051F130E820E0A0CF8A81F5
:1002A0008093880030E820E09ACF888187FD02C0E3
:1002B00030E06CCF2E8130E069CF8B818130E9F066
:1002C000823081F1833011F130EC20E088CF8AE870
:1002D00090E0909386008093850030E821E07FCF06
:1002E0008A8180938A0030E820E079CF30938600BD
:1002F0002093850030E821E072CF84E590E0909370
:1003000086008093850030EC22E169CF8A818823C2
:1003100091F486E290E0909386008093850030EC23
:1003200024E05DCF86E690E0909386008093850080
:1003300030EC22E154CF813059F0823029F686E446
:1003400090E0909386008093850030EC2EE047CFBC
:100350008AE290E0909386008093850030EC2CE157
:100360003ECFDF91CF911F910F910895A82FB92F04
:100370008FEF9FEF41E050EA615070F02D9138E02F
:10038000722F782796958795269570FF02C084274F
:1003900095273A95A9F7F0CF809590950895E6DFD7
:1003A0008D939D930895CF93CFB7CF93B09BFECFFE
:1003B000B09B09C0B09B07C0B09B05C0B09B03C0F9
:1003C000B09B01C09EC0DF93C0918400DD27C5575C
:1003D000DF4FB09B02C0DF91EBCF2F930F931F93A2
:1003E00006B32FEF00FB20F94F933F9316B34FEF67
:1003F000012700FB21F93BE031C04E7F012F16B3EE
:10040000216028C0102F4D7F2260000006B329C054
:100410004B7F2460012F000016B32BC016B3477F1B
:1004200028602AC04F7E06B320612CC04F7D16B3D2
:1004300020622FC04F7B06B3206432C0422706B330
:1004400049934FEF0000102710FB20F916B31370EB
:10045000A9F1297F91F2012700FB21F906B3237F3F
:1004600089F23150F0F1102710FB22F916B3277EE4
:1004700079F2012700FB23F92F7C81F206B31027C4
:1004800010FB24F92F7971F200C016B3012700FB8D
:1004900025F92F7359F200C006B3102710FB26F977
:1004A000223040F200C016B3012700FB27F92430A8
:1004B00028F64F77206816B30000F9CF3B503195EE
:1004C000333010E41ABFB8F0C31BD0400881033C9E
:1004D00041F10B3431F11981412F1F7720918200B6
:1004E000121731F4093691F10D3279F0013E69F0BD
:1004F0002227209389003F914F911F910F912F91B7
:10050000DF91CF91CFBFCF911895009389003F9194
:100510004F911F910F912F91DF91CAB7C6FD46CF22
:10052000F0CF00918900002331F31091870011234F
:1005300049F534304AF130938700009383001091DD
:1005400084003BE0311B309384001EC00091870083
:100550000130C4F40AE53091610034FD17C0009306
:100560006100C7E7D0E016C0052710E008BB1FC038
:10057000052722C0052727C005272CC0052710E026
:1005800008BB33C04AE503C042ED01C0432FC4E1BC
:10059000D0E032E017B31360C09A08B317BB5F9383
:1005A00053E020E820FF052708BB279517951C3F3F
:1005B000D8F620FF0527279508BB17951C3FC0F6E6
:1005C00020FF05272795179508BB1C3F98F620FFAD
:1005D0000527279517951C3F08BB70F600C0499169
:1005E00020FF052708BB279517951C3F38F620FFED
:1005F0000527279508BB17951C3F38F520FF0527D1
:100600002795179508BB1C3F10F520FF0527279558
:1006100017951C3F08BBE8F4242F3A9519F60C7F78
:100620005F9108BB00C010918800C651D04011F006
:100630001093820010E41ABF016017B31C7F402F93
:100640004C7F08BB17BB48BB56CF0527D3CF052728
:10065000D8CF0527DDCF82E58DB91EB80895882350
:1006600039F480E693E09093A2008093A10008956E
:100670008DE793E09093A2008093A100089592B734
:1006800082B7891B8C30E0F3089587B38C6287BBF7
:10069000C298C598F4DFC29AF2DFC2988091A10097
:1006A0009091A2008D57934009F00895D4DF0895EA
:1006B00087B3837D87BB88B3837D88BB1DB80895CE
:1006C000FF920F931F93182FFF2400E00CC0C398D4
:1006D000FF0CB499F394C59AD2DFC598D0DF0F5FB1
:1006E000083029F0110F17FFF2CFC39AF1CF8F2DE9
:1006F00099271F910F91FF9008958FB9779BFECF97
:100700008FB1992708950F931F930FE103C00150F4
:100710000F3F51F1E091A100F091A2008CEA099500
:10072000E091A100F091A20083E50995E091A1007C
:10073000F091A20080E00995182FE091A100F091BE
:10074000A20080E00995133591F01DB8C59A97DF96
:10075000C59895DF8091A1009091A2008D5793409C
:10076000B1F679DF0150B0F681E090E002C080E0A0
:1007700090E01F910F910895EF92FF920F931F93B6
:100780007B018C01862F8170880F880F880FE09184
:10079000A100F091A20080620995D801C70129E06B
:1007A000B695A795979587952A95D1F7E091A100E1
:1007B000F091A200099516950795F794E794E091BA
:1007C000A100F091A2008E2D0995E091A100F09179
:1007D000A20080E0099599271F910F91FF90EF905B
:1007E00008950F931F938C01E091A100F091A20056
:1007F00080EA0995812F9927E091A100F091A2004C
:100800000995E091A100F091A200802F0995E09157
:10081000A100F091A20080E0099599271F910F9106
:100820000895FF920F931F938C01F62EE091A10083
:10083000F091A20080EC0995812F9927E091A10009
:10084000F091A2000995E091A100F091A200802F03
:100850000995E091A100F091A2008F2D09958EE1FC
:10086000AED080E090E01F910F91FF900895CF925D
:10087000DF92EF92FF920F931F936B017C01142F75
:10088000E091A100F091A2008CE40995D701C60186
:1008900069E0B695A795979587956A95D1F7E09108
:1008A000A100F091A2000995D701C601B695A795C0
:1008B00097958795E091A100F091A2000995E091AC
:1008C000A100F091A20080E009951F3FA9F002B7B6
:1008D0001EE1C701B60150DF8F3F59F482B7801B7C
:1008E0008D3310F002B71150112399F781E090E099
:1008F00007C080E090E004C08FE061D080E090E02D
:100900001F910F91FF90EF90DF90CF900895CF92BD
:10091000DF92EF92FF920F931F936B017C01042FE4
:10092000122F862F8170880F880F880FE091A10009
:10093000F091A20080640995D701C601E9E0B6955F
:10094000A79597958795EA95D1F7E091A100F09149
:10095000A2000995D701C601B695A79597958795E9
:10096000E091A100F091A2000995E091A100F09121
:10097000A200802F09951123A1F00F37A9F002B72B
:100980001EE1C701B601F8DE8F3759F482B7801B2C
:100990008D3310F002B71150112399F781E090E0E8
:1009A00007C080E090E004C08FE009D080E090E0D4
:1009B0001F910F91FF90EF90DF90CF900895382F07
:1009C000882349F020E092B782B7891B8C33E0F38B
:1009D0002F5F3217C1F7089512BA18BA8BEF81BB97
:1009E0008FEF87BB9EEF9150F1F78150E1F717BA77
:1009F00093E094BB8EEF85BB93BF81E030DE57DB85
:100A000078945CDB5BDBFDCFBF92CF92DF92EF92FD
:100A1000FF920F931F93CF93DF937C01C62E80919B
:100A20006300813029F0843019F08FEF90E09EC090
:100A3000CC2009F499C0BB24DD2458C080917300F8
:100A400090917400892B09F063C0CD2DDD27F7014B
:100A5000EC0FFD1F60916F0070917000809171002C
:100A60009091720021E0408152DF8091640090916A
:100A7000650001979093650080936400892BF1F4E1
:100A8000109263008091750081FF3FC080917600D5
:100A90009927209173003091740082179307A9F170
:100AA000CE0DDF1D60916F0070917000809171001C
:100AB000909172004881DBDE91E0B92E80916F0049
:100AC00090917000A0917100B09172000196A11DEB
:100AD000B11D80936F0090937000A0937100B0934C
:100AE0007200D394CD14E9F180916300813009F450
:100AF000A5CFCD2DDD27F701EC0FFD1F6081809183
:100B00006F00909170008DDEB0CF81E0B82ED6CF0F
:100B1000CD2DDD2787010C0F1D1F60916F00709197
:100B20007000809171009091720020E0F801408186
:100B3000EEDE80917600815080937600882309F064
:100B400094CF60916F0070917000809171009091CE
:100B50007200F80140818BDE8091730080937600F3
:100B600084CF8B2D992702C080E090E0DF91CF9158
:100B70001F910F91FF90EF90DF90CF90BF9008955D
:100B80000F931F93CF93DF93EC01062F9091630097
:100B9000892F8250823018F08FEF90E03EC066239C
:100BA000C1F110E021C080916F009091700019DEBA
:100BB000FE01E10FF11D808380916F009091700024
:100BC000A0917100B09172000196A11DB11D80939A
:100BD0006F0090937000A0937100B09372001F5F3C
:100BE000011791F0909163009230E9F660916F00E7
:100BF000709170008091710090917200BDDDFE01D6
:100C0000E10FF11D8083D8CF083018F0802F99278D
:100C100004C010926300802F9927DF91CF911F911C
:100C20000F910895CF93DF93EC018981813041F1D9
:100C3000823009F4B6C0833009F4B8C0843059F169
:100C4000873009F484C0853009F41BC1863009F46B
:100C50004FC0883009F4E5C0893079F481E0809391
:100C600066008A819B81AC81BD8180936F009093E7
:100C70007000A0937100B093720020E030E006C1D4
:100C80009A9933C080E0EBDC10926600A998FDDCF5
:100C900020E030E0FBC0809166008823A1F48B81C6
:100CA0002A819927982F88273327822B932BAA27CD
:100CB00097FDA095BA2F80936F0090937000A0933A
:100CC0007100B09372008F812E819927982F882709
:100CD0003327822B932B909365008093640082E0EE
:100CE000809363002FEF30E0D1C081E0B8DCCCCF3F
:100CF00080916600882309F47FC02C819D819F70BC
:100D0000909375008D81482F5527407F50704295F4
:100D10005295507F5427407F5427420F511D5093C6
:100D200074004093730090FD64C08F812E819927D9
:100D3000982F88273327822B932B909365008093DD
:100D4000640081E0809363002FEF30E09FC08091CA
:100D500066008823A1F48B812A819927982F882700
:100D60003327822B932BAA2797FDA095BA2F809328
:100D70006F0090937000A0937100B09372008F8108
:100D80002E819927982F88273327822B932B909396
:100D900065008093640083E0809363002FEF30E070
:100DA00075C086DCA99A20E030E070C0E091A10017
:100DB000F091A2008A81099580936700E091A100DB
:100DC000F091A2008B81099580936800E091A100C9
:100DD000F091A2008C81099580936900E091A100B7
:100DE000F091A2008D81099580936A0024E030E0A3
:100DF0004DC04093760099CF8B812A819927982FF7
:100E000088273327822B932BAA2797FDA095BA2FEB
:100E100080936F0090937000A0937100B093720064
:100E20006CCF809166008823A1F48B812A81992759
:100E3000982F88273327822B932BAA2797FDA095DD
:100E4000BA2F80936F0090937000A0937100B093BD
:100E500072001092740010927300109275008F81CE
:100E60002E819927982F88273327822B932B9093B5
:100E700065008093640084E0809363002FEF30E08E
:100E800005C041DC8093670021E030E087E690E018
:100E90009093860080938500C901DF91CF910895DA
:020EA000FF5AF7
:00000001FF
