:1018000050C088C069C068C067C066C065C064C099
:1018100063C062C061C060C05FC05EC05DC05CC0CC
:101820005BC05AC059C00403090412036F00620070
:101830006400650076002E0061007400100348000B
:101840004900440042006F006F0074001201100153
:1018500000000008C016DF050001010200010902B6
:101860002200010100803209040000010300000091
:10187000092101010001222100070581030800C898
:101880000600FF0901A101150026FF00750885016A
:1018900095060900B20201850295830900B2020192
:1018A000C00011241FBECFE5D4E0DEBFCDBF10E0E5
:1018B000A0E6B0E0E8EAFFE102C005900D92AC3688
:1018C000B107D9F710E0ACE6B0E001C01D92AA3A2A
:1018D000B107E1F732D367C393CFA82FB92F8FEFAA
:1018E0009FEF41E050EA615070F02D9138E0722F87
:1018F000782796958795269570FF02C084279527AF
:101900003A95A9F7F0CF809590950895E6DF8D93ED
:101910009D930895CF93CFB7CF93B09BFECFB09B4D
:1019200009C0B09B07C0B09B05C0B09B03C0B09B73
:1019300001C09EC0DF93C0918D00DD27CC56DF4FE4
:10194000B09B02C0DF91EBCF2F930F931F9306B391
:101950002FEF00FB20F94F933F9316B34FEF012772
:1019600000FB21F93BE031C04E7F012F16B321600F
:1019700028C0102F4D7F2260000006B329C04B7F86
:101980002460012F000016B32BC016B3477F2860D8
:101990002AC04F7E06B320612CC04F7D16B3206253
:1019A0002FC04F7B06B3206432C0422706B3499351
:1019B0004FEF0000102710FB20F916B31370A9F1A8
:1019C000297F91F2012700FB21F906B3237F89F2D9
:1019D0003150F0F1102710FB22F916B3277E79F26F
:1019E000012700FB23F92F7C81F206B3102710FB9F
:1019F00024F92F7971F200C016B3012700FB25F9F5
:101A00002F7359F200C006B3102710FB26F92230BD
:101A100040F200C016B3012700FB27F9243028F656
:101A20004F77206816B30000F9CF3B503195333023
:101A300010E41ABFB8F0C31BD0400881033C41F149
:101A40000B3431F11981412F1F7720918B00121730
:101A500031F4093691F10D3279F0013E69F0222717
:101A6000209392003F914F911F910F912F91DF9101
:101A7000CF91CFBFCF911895009392003F914F9196
:101A80001F910F912F91DF91CAB7C6FD46CFF0CFBE
:101A900000919200002331F3109190001123A1F5E1
:101AA0003430A2F13093900000938C0010918D009F
:101AB0003BE0311B30938D0029C000919000013034
:101AC0001CF50AE547FD09C03091610034FD20C0D6
:101AD00000936100C5E7D0E01FC03091620034FD83
:101AE00017C000936200C0E8D0E016C0052710E0E0
:101AF00008BB1FC0052722C0052727C005272CC00B
:101B0000052710E008BB33C04AE503C042ED01C021
:101B1000432FC4E1D0E032E017B31360C09A08B39A
:101B200017BB5F9353E020E820FF052708BB2795EC
:101B300017951C3FD8F620FF0527279508BB17955A
:101B40001C3FC0F620FF05272795179508BB1C3FB3
:101B500098F620FF0527279517951C3F08BB70F6C0
:101B600000C0499120FF052708BB279517951C3F0A
:101B700038F620FF0527279508BB17951C3F38F539
:101B800020FF05272795179508BB1C3F10F520FF60
:101B90000527279517951C3F08BBE8F4242F3A9595
:101BA00019F60C7F5F9108BB00C010919100C651DF
:101BB000D04011F010938B0010E41ABF016017B3EE
:101BC0001C7F402F4C7F08BB17BB48BB4BCF052762
:101BD000D3CF0527D8CF0527DDCFBF92CF92DF9295
:101BE000EF92FF920F931F93CF93DF93209190007A
:101BF00012160CF03CC1922F935080918D00C0EAD8
:101C0000D0E0C81BD10980918C008D3209F0ADC0A5
:101C10008AE580936100983009F021C19881892F6D
:101C2000807609F07FC02EE730E010927E00898137
:101C3000882341F410927F0030938F0020938E0010
:101C400092E006C0853031F48A818093910090E063
:101C500030E881C0863009F047C08B81813019F4AB
:101C60008CE498E11BC0823041F48EE598E19093BA
:101C70008F0080938E0092E250C1833001F58A81FB
:101C8000882341F486E298E190938F0080938E0040
:101C900094E043C1813041F48AE298E190938F004F
:101CA00080938E0092E139C1823009F035C18CE316
:101CB00098E190938F0080938E0090E12EC1813245
:101CC00041F480E798E190938F0080938E0099E033
:101CD00024C1823209F020C180E898E190938F00FE
:101CE00080938E0091E219C1883039F483E990E045
:101CF00090938F0080938E000CC0893021F48A81EC
:101D000080939300A4CF8A3031F430938F002093D6
:101D10008E0091E09DCF8B3009F099CF83EC8093BA
:101D2000800095CF8981893041F48A818093630056
:101D30001092710097FD0DC08AC0813009F0EFC08C
:101D400084E690E090938F0080938E0087E090E08F
:101D5000E8C09E817DC08F81882309F082C02E81DA
:101D6000291708F07EC0922F7CC080916C0087FDFF
:101D700076C080916300813019F4809372006DC049
:101D8000823009F06AC080917100882371F4FE01ED
:101D90003196E980DF011196F180FD010181ED01AD
:101DA000229610E0922F975008C0E0906D00F090BE
:101DB0006E0000916F0010917000782F790F709372
:101DC0007100692F669523E0B22E91E0C92E85E05F
:101DD000D82EC7018F739070892B49F4F894F701BE
:101DE000B0925700E895789407B600FCFDCFF894C0
:101DF000288139810901F701C0925700E895112423
:101E00007894A80197012E5F3F4F4F4F5F4F7901A4
:101E10008A01C9018F739070892B59F4F894C90114
:101E20000297FC01D0925700E895789407B600FC21
:101E3000FDCF615011F02296CCCF20936D003093EE
:101E40006E0040936F005093700077FD03C09FEFCA
:101E500030E007C08FEF8093630090E0F9CF90E00F
:101E600030E830936C009093600010929000809165
:101E7000610084FF46C0809160008F3F09F441C03B
:101E8000682F893008F068E0861B8093600080919D
:101E90006C0080FF02C003EC01C00BE48F5F8093F5
:101EA0006C0020918E0030918F0086FD05C0962F2A
:101EB000F901A6E7B0E00DC0962FF901A6E7B0E062
:101EC00003C084918D9331969150D8F704C08191CD
:101ED0008D939150E0F7C901860F911D90938F006B
:101EE00080938E007727162F86E790E00FDD18305D
:101EF00018F48FEF80936000009375001C5F1093BF
:101F000061009AE086B3837071F49150D9F7109212
:101F1000910010928B0007C090E030EC1CCF80E065
:101F200090E0982F95CEDF91CF911F910F91FF9068
:101F3000EF90DF90CF90BF9008951F9384E085BB12
:101F40009A9924C081E08BBF82E08BBF83E087BB7E
:101F50009EEF8FEF9150F1F78150E1F717BA85B7F7
:101F6000836085BF8BB780648BBF83EC80938000D8
:101F700078940AC032DE80917200882329F01FEF26
:101F80002CDE115019F0FCCF9A9BF4CFF89481E12C
:101F900080935700E89581E08BBF1BBEE0917300F2
:081FA000F09174000995FFCFD8
:0C1FA800FF5A5AFF01400000200000001A
:0400000300001800E1
:00000001FF
