:040000000C949B00C1
:1400E4000000A042A8C64B3E7D3FA5411058254183C04A3EF4
:1400F8000C020B400000804400701C4533B5B5A3BA0032B525
:14010C00B5A3BA0031B5B5A3BA00C0F9A4B0999282F8809013
:14012000B2E2B5C3CDA8B5C0B5C4B5E7D1B9D6B5CEAAA3BAD6
:0101340000CA
:14013600CFEFD1E2CDBFDEBFCE51D0400AEA08830024E1E385
:14014A00F2E012E0E133F10711F00192FBCF0083E4E0F1E05B
:14015E00A0E0B2E011E000E00BBFE533F10721F0C89531969B
:140172000D92F9CF0E94BE00FFCF03E010E00E949F020E942C
:14018600D9010E9493020E9438020E941C030CC101E010E019
:14019A000E941A020E94B8028AE090E08017910708F087C0EF
:1401AE000E94B802003BE4E01E0708F080C00E94B802A80180
:1401C200003FE0E01E0708F037C001E010E00E949F0202E020
:1401D60010E00E941A020E94B802680108EF10E00E94D9033D
:1401EA001801290104EF10E00E94D9033801490186010E94B1
:1401FE00C5043A932A931A930A93830194010E946D068101A0
:1402120092010E9462060E94930458010E94EA0201E00E9498
:14022600E00103E010E00E949F0225E00CE012E00E94450300
:14023A000E94B802780180EF90E08017910708F038C002E0FB
:14024E0010E00E949F0202E010E00E941A020E94B802780104
:14026200670100EF10E00E94D9031801290104EF10E00E94FB
:14027600D9033801490186010E94C5043A932A931A930A934F
:14028A00830194010E946D06810192010E9462060E949304DA
:14029E0058010E94EA0202E00E94E00103E010E00E949F02EA
:1402B20025E006E012E00E9445030E94B802780180EB94E0BD
:1402C6008017910708F03EC00E94B802780167010CEE10E0D8
:1402DA000E94D9031801290108EE10E00E94D9033801490168
:1402EE0086010E94C5043A932A931A930A93830194010E947B
:140302006D06810192010E9462061801290104EE10E00E948E
:14031600D9033A932A931A930A93810192010E9488040E943E
:14032A00930458010E94EA0203E00E94E00103E010E00E9466
:14033E009F0225E000E012E00E94450328EE33E085010E94F8
:14035200A703005D1F4F0E943E030EE20E943E0328EE33E043
:1403660085010E94A50324E630E00E94A703005D1F4F0E94E0
:14037A003E0324E630E085010E94A5032AE030E00E94A703DE
:14038E00005D1F4F0E943E032AE030E085010E94A503005D66
:1403A2001F4F0E943E0306E50E943E03F3CE0895BA9ABB9A21
:1403B600BC9AC29AC39AC49A08954A935A93402F5527413003
:1403CA00E0E05E0749F04230E0E05E0749F04330E0E05E0759
:1403DE0049F00BC0C298C39AC49A07C0C29AC398C49A03C053
:1403F200C29AC39AC498599149910895B898B998C09AC19A2B
:140406000895B19906C004E110E011D0B19901C0C298B19BCE
:14041A00FECF0895B09906C004E110E006D0B09901C0C29A44
:14042E00B09BFECF08950E94FD03A8010AC06CE371E002C08E
:140442006150704060306707D9F7415050404030450799F70A
:140456000C94020401E010E002C00F5F1F4F80E390E008178B
:14046A001907C8F3089584B7806884BF84B7806884BF8FEFBC
:14047E0084BB85BBD49AD59AD69AD79ADC98DD98DE98DF9857
:1404920008950E940704A22EC02E4C2D55274130E0E05E07C3
:1404A60069F04230E0E05E07A1F04330E0E05E07D1F04430F4
:1404BA00E0E05E0701F128C0DC9A82E192E0EA2DFF27E80FB0
:1404CE00F91F8081805885BB1DC0DD9A82E192E0EA2DFF2783
:1404E200E80FF91F208025BA13C0DE9A82E192E0EA2DFF271B
:1404F600E80FF91F208025BA09C0DF9A82E192E0EA2DFF2710
:14050A00E80FF91F208025BA01E010E00E941A02DC98DD98D7
:14051E00DE98DF980C940E04D19AD99AD29ADA9AD39ADB9A8A
:14053200D898D098222420BE27B808950130E0E01E0749F0EE
:140546000230E0E01E0749F00330E0E01E0749F00BC0D99AC2
:14055A00DA9ADB9807C0D998DA98DB9803C0D99ADA98DB986E
:14056E000895AA92BA9280EC86B9349BFECFA4B0BB2425B104
:14058200332700E011E00E94ED03A00EB11E349A00E011E08C
:140596000E94D9031801290185010E94C504380149010CEF21
:1405AA0010E00E94D9033A932A931A930A93830194010E9440
:1405BE000805810192010E9462060E9493045801B990A990E9
:1405D2000895AA92BA92580128EE33E085010E94A703202F4D
:1405E60001E00E944A0224E630E085010E94A7032AE030E02C
:1405FA000E94A503202F02E00E944A022AE030E085010E9442
:14060E00A7032AE030E00E94A503202F03E00E944A022AE0A0
:1406220030E085010E94A503202F04E00E944A02B990A99041
:14063600089581B38E7F81BB899A599A8AB188618AB98AB1DE
:14064A00806C8AB9529880B5866080BD80B58F7B80BD80B57A
:14065E008F7C80BD80B5877F80BD0CE010E009B91801232CC2
:14067200332427FC309420BC08955D9BFECF0CB95E9BFECF6D
:140686005E9A08950E94FD03622FA80105C0FA010081F1DFDE
:14069A004F5F5F4F262E332461502220B1F70C940204AA92C8
:1406AE00A02E24E10CE112E0E9DF28EE33E00A2D11270E9484
:1406C2008B03005D1F4FD9DF0EE2D7DF28EE33E00A2D1127D5
:1406D6000E94870324E630E00E948B03005D1F4FCADF14E62C
:1406EA000A2D0E94C1031AE00E94C303005DC1DF1AE00A2DCF
:1406FE000E94C103005DBBDF06E5B9DFA99008956894DA92CA
:14071200D12E04C0E894DA92D12ED32617FF04C0109500951C
:140726000F5F1F4F37FF04C0309520952F5F3F4F0E94A80306
:14073A00D7FE04C0109500950F5F1F4FD9900895689401C039
:14074E00E894EA92FA928A93EE24FF2480E1000F111FEE1C17
:14076200FF1CE216F30618F0E21AF30A03958A95A1F716F41D
:140776000E2D1F2D8991F990E9900895689401C0E8942A9339
:14078A00FA92EA92FF24EE2420E1000FFF1CEE1CE11610F0F2
:14079E00E11A03952A95B9F70EF40E2DE990F99029910895AF
:1407B200EA93FA930A92E02FF12FD895002D3196D895102D53
:1407C6003196D895202D3196D895302D0990F991E9910895D3
:1407DA000A921A928A939A93029FC001129F900D039F900D8A
:1407EE008C01999189911990099008957A936A935A934A9373
:140802000895499159916991799108955A934A93DA92CA924E
:14081600BA92AA920895A990B990C990D99049915991089504
:14082A0000951095209530950F5F1F4F2F4F3F4F0895689485
:14083E0001C0E8940E94F1050E94830509F448C0E62CD52C8F
:14085200C42CB32EA22E912E802E00811181228133810E9478
:14086600830509F444C0842D952D8C199D09B9F072F4909503
:14087A00809501964C2C5D2C8831B8F5359527951795079589
:14088E000197D1F708C0883118F5B594A79497948794019706
:1408A200D1F766242EF0080D191D2A1D3B1D09C0801A910AEA
:1408B600A20AB30A082D192D2A2D3B2D332322F40E94150464
:1408CA0080E8682E0E94AC0502C00E94E1050E94000608953A
:1408DE000081118122813381C6F70E948B05A9F380E838274A
:1408F200F2CF082D192D2A2D3B2D4C2C5D2C6E2C33233AF7D5
:140906000E94150480E8682EE2CFFA93EA93EC2FFD2F32965A
:14091A000E941E04E991F991249608954A925A926A928A93C9
:14092E000E94930511F15520E2F08FE14816C0F487E14816EA
:14094200D1F058F4419489EE481A05C0359527951795079553
:140956004A94D1F70EC087E1481A000F111F221F331F4A949F
:14096A00D1F705C03FE7232F132F032F04C0662011F00E9413
:14097E00150489916990599049900895689401C0E894222758
:14099200332746F017FD209517FD309503C0689401C0E89423
:1409A6004A925A926A928A9387E1482E5524662436F03323FF
:1409BA0022F40E94150480E8682E0E94AC058991699059900B
:1409CE0049900895FA93EA93EA81FB8127D0E991F9912296FB
:1409E2000895FA93EA93EC2FFD2F32961DD0E991F9912496A0
:1409F6000895FA93EA93EA81FB8114D0E991F9913983288310
:140A0A001A930A930895FA93EA93EC2FFD2F329607D0E99187
:140A1E00F9913B832A831983088308950A921A922A923A923B
:140A32000E94F1053A932A931A930A930081118122813381DA
:140A46000E94930509F457C0E62CD52CC42CB32EA22E912EDB
:140A5A00802E09911991299139910E949305A1F16E244C1850
:140A6E005D0880E8481653060CF033C081E848168FEF58065E
:140A82000CF436C080E23324232E122E012E302F2227112711
:140A9600002726941794079437952795000F111F221F331FCB
:140AAA00001C111C221C331C28F0081819082A083B0804C0D0
:140ABE00080C191C2A1C3B1C0AF001608A9551F70E94AC0529
:140AD2000E940006399029901990099008950FEF102F2FE7B4
:140AE6003FE7662099F30E941504F0CF0027102F202F302F36
:140AFA00EBCF0991199129913991EDCF0FD029F0662011F02B
:140B0E000E94150498940895002329F4112319F4222309F48C
:140B220033230895F7DF99F08A93632E80E86822220F331F4A
:140B3600432E8FE7481A55248827580A269530E8232B33275D
:140B4A008991989408954424552466240895DEDF09F4089555
:140B5E00AA93BA93D2019A938A938EE790E0332349F036959D
:140B7200279517950795A817B907CCF41196F5CF8095909587
:140B860001962223BAF0000F111F221FA817B90714F011972A
:140B9A00F6CF0027112722273327899199912D01B991A9918A
:140BAE00089533270FEF102F2FE7322F899199912D0102C054
:140BC200AA93BA93A7DF49F0D201A158BF4F2D01342D220F3C
:140BD600369527953629B991A99108954A925A926A927A9234
:140BEA008A929A92AA92BA92CA92DA92EA92FA928A939A930D
:140BFE00089599918991F990E990D990C990B990A990999093
:140C12008990799069905990499008950E94F105AA93BA9332
:140C26000E949305E1F1E62CD52CC42CB32EA22E912E802E8D
:140C3A0000811181228133810E94930571F16E244C0C5D1C3D
:140C4E0080E84816530664F581E848168FEF58066CF1A29EDA
:140C6200B12DA02D919E912D802DA09E800D911DA31FB31F2C
:140C7600829E800D911DA31FB31F929E900DA11DB31FA19EDF
:140C8A00900DA11DB31F2B2F1A2F092F880F001F111F221F27
:140C9E00331F0E94AC05B991A9910E94000608950FEF102F97
:140CB2002FE78FE7482EF5CF0027102F202F302FF0CFFA9308
:140CC600EA93EC2FFD2F32960E940F06E991F991249608957C
:140CDA00FA93EA93EC2FFD2F32960E940F06E991F9913B8374
:080CEE002A831983088308958D
:00000001FF
